:1000000061C000007BC0000079C0000077C0000024
:1000100075C0000073C0000071C000006FC0000018
:100020006DC000000AC7000069C0000067C0000082
:1000300065C00000FAC4000061C000005FC000009D
:100040005DC000005BC0000042C60000D2C60000D8
:1000500055C0000053C0000051C000004FC0000058
:100060004DC000004BC00000214C382056382061A4
:100070006363626264645261636362626464526176
:1000800063636262646452616363626264645200C7
:10009000214C3136205638204D532063636363630F
:1000A0006363636363636300214C313620563820F9
:1000B000636465666761623E636261676665646327
:1000C0000000D50711241FBECFEFD8E0DEBFCDBFA3
:1000D00011E0A0E0B1E0E8E7F0E202C005900D9287
:1000E000A833B107D9F721E0A8E3B1E001C01D9220
:1000F000AD3FB207E1F7E8D10C94301081CFCF9338
:10010000DF9380ED97E04FD7CCEEDFEFC832D1051B
:1001100028F068ED7FEF88E290E004C068E270E0CC
:1001200088ED9FEF89D581E009D784E190E0CDD6B5
:100130002196CC33D10551F760E070E080E090E08B
:100140007BD588EA90E0CDD4DF91CF910895FC0172
:1001500020E030E080E090E02617370749F0419139
:1001600051918417950708F4CA012F5F3F4FF4CFD0
:100170000895A0E0B0E0EFEBF0E00C944F0D61E0EB
:1001800086E491E0DFD665E070E086E491E0DFDFB1
:100190004091000150910101209106013091070129
:1001A0008417950750F53195219531093093070152
:1001B000209306014091080150910901249FC0013C
:1001C000259F900D349F900D1124109240011092A4
:1001D0004101109242011092430110923A01109293
:1001E0003B0110923C0110923D01BC0125D580914C
:1001F00002019091030169D6EEC061E086E491E0CE
:100200002F3F3F4F09F06CC09DD6AC01405D574079
:1002100020913E0130913F01EA01C21BD30BBA018C
:10022000882777FD8095982F00913A0110913B0126
:1002300020913C0130913D01060F171F281F391FE7
:1002400000933A0110933B0120933C0130933D0110
:1002500050933F0140933E010E941A0E26EA3BE96B
:1002600044EC5AE30E94A60E6B017C01BE01882774
:1002700077FD8095982F0E941A0E2DEC3CEC40E8FB
:100280005FE30E94A60E9B01AC01C701B6010E946C
:10029000830D0E94E70D2091080130910901261776
:1002A00037070CF4B90188279927821B930B68172D
:1002B00079070CF4BC01809106019091070177FF4A
:1002C0000BC0829FA001839F500D929F500D11245F
:1002D000260F371FBA0176C0A901461B570B6BC00A
:1002E00031D6EC01C05DD740809144019091450129
:1002F0008E01081B190BBE01882777FD8095982F6A
:10030000C0904001D0904101E0904201F090430143
:100310006C0D7D1D8E1D9F1D6093400170934101EA
:100320008093420190934301D0934501C0934401CF
:1003300020E137E240E050E00E940A0DF801EE0FA4
:10034000FF1FE00FF11FF7FD3196F595E795E20FDE
:10035000F31FCE0164E170E00E94D50C20910801EA
:1003600030910901E60FF71F2E173F070CF4F90132
:1003700088279927821B930BE817F9070CF4FC01D7
:100380008091060190910701F7FF12C0829FB00192
:10039000839F700D929F700D1124E20FF31F9C013B
:1003A0002E9FC0012F9F900D3E9F900D112412C0D3
:1003B000A9014E1B5F0B849FB001859F700D949F18
:1003C000700D1124AC01429FC001439F900D529FBC
:1003D000900D112431D4CDB7DEB7E8E00C946B0D4D
:1003E000809151018F3119F41092510108958F5F5E
:1003F00080935101089520919D01E09151012E17A4
:1004000049F0F0E0EE58FE4F2081FC012083E8DF48
:1004100081E0089580E00895A1E0B0E0E2E1F2E03B
:100420000C94550D84E08983CE010196E4DF882386
:1004300009F43FC08981833001F15CF48130D9F047
:100440008230B9F581E090E0909307018093060136
:100450001CC0853049F1F4F0863059F560E070E059
:1004600080E090E0E9D3109239011092380188E6DB
:1004700090E037D31DC043DE1CC08FEF9FEF9093F9
:1004800007018093060181E090E090933901809309
:1004900038010FC060E070E080E090E0CDD31092B2
:1004A00039011092380105C080E990E01AD301C0EB
:1004B000FFCF8091380190913901892B09F059DEE5
:1004C0002196E2E00C94710D60E875E280E090E026
:1004D00050D460E282E791E0F5D39EDFFECF9091A9
:1004E0009701E0919201F0919301992311F0849189
:1004F00001C080812FEB280F2A3110F4805E08950F
:10050000803249F49F012F5F3F4F30939301209336
:100510009201EF2B31F708951F93CF93DF93DFDF25
:10052000C0E0D0E01AE090ED980F9A30B0F49E0150
:10053000129FE001139FD00D1124C80FD11D87FD1C
:10054000DA95E097809192019091930101969093B2
:10055000930180939201C3DFE6CFCE01DF91CF916B
:100560001F91089510926F0083E28093800081E1D3
:10057000809381001092820080E197E2909389003D
:100580008093880010928B0010928A00229A7894AF
:1005900008958F929F92AF92BF92DF92EF92FF9257
:1005A0000F931F93CF93DF935C018B01D42E809127
:1005B0009401811104C081E080939401D3DF1092F3
:1005C0001301B7FE05C0E894B7F82AE0F22E02C086
:1005D000FF24F394E09081002E2D287FE22E48EC3A
:1005E000F49EC00111248A159B05E0F4E50151E158
:1005F000A51657E2B50610F0C0E1D7E2BE01769528
:10060000679580E090E06058794687469F4F4E019D
:10061000A12CB12CA50194010E94E80C59018E2D4A
:10062000816024C0C8E2FC9EC02D1124D0E0CA1510
:10063000DB0508F4E501BE01769567959E0140E073
:1006400050E08AE0F81207C080E090E0605E7344FA
:1006500081449F4F06C080E090E060537D4E8C4EF9
:100660009F4F0E94E80C59018E2D8260882E2AE04F
:10067000F21207C0CE0105966AE070E00E94C10C3C
:10068000EB01C83E43E0D40759F09801DE010E9417
:10069000260D28EE33E040E050E00E940A0D89016B
:1006A00010926F0080928100B0928900A092880021
:1006B00020918800309189004D2D403108F04FE0A5
:1006C00080E190E0841B9109A90102C056954795ED
:1006D0008A95E2F750938B0040938A0010939A0119
:1006E0000093990186B38FEF86BB81E080936F0002
:1006F000DF91CF911F910F91FF90EF90DF90BF900E
:10070000AF909F908F900895CF93DF93EB018F3F31
:1007100011F0411105C040E0BE0188EE93E043C0F6
:10072000813130F050EF580F503618F05FE501C0BE
:1007300050E0852F6CE00E94B50C682F74EF7603B3
:1007400090011124250F311D2C30310540F4F901A1
:10075000EE0FFF1FE65EFE4F2081318102C020E0D8
:1007600030E0873081F0082E02C0220F331F0A9438
:10077000E2F7823028F0C90105966AE070E00CC00B
:10078000C90190580CC0C90136E0880F991F3A95ED
:10079000E1F7029665E070E00E94C10CCB014031A8
:1007A00008F04FE0BE01F5DEDF91CF910895A2E0A1
:1007B000B0E0EDEDF3E00C94470D909012018091C4
:1007C0009601882321F060919501611117C077246B
:1007D0007394B0ECAB2EBDE5BB2E1AE0612E04E0A5
:1007E000802E80EDC82E87E0D82E94E0E92EF12CE3
:1007F00004EF11E02FE0422E512C14C070E040E0D5
:1008000088EE93E0C6DE109295010BC18636CCF5DA
:10081000813609F4A3C074F58C3309F45CC08E33BF
:1008200079F493945CDE20919201309193012F5FD3
:100830003F4F3093930120939201853639F74FC093
:10084000813209F086C080921201D0921101C092CB
:100850001001F0920F01E0920E0110930D01009330
:100860000C0150920B0140920A0110929601A4E0F3
:100870009A2ED8CF833689F10CF473C010E082E051
:1008800072C08D36A9F18CF4873679F15CF18C3623
:1008900009F05FC041DEBC0190930F0180930E010F
:1008A00080911001909111014DC08237B1F144F453
:1008B0008F3609F04EC030DE982E80931201B2CFF1
:1008C000843771F1863709F044C026DE90930B011E
:1008D00080930A01A7CF9A94A5CF10E01FC010E023
:1008E00084E041C010E085E03EC010E087E03BC0FE
:1008F000F6DD8C3619F41092960104C070929601C0
:100900001092950120919201309193012F5F3F4FFA
:10091000309393012093920185CF11E080E023C0B2
:10092000FBDDBC01C5010E94C10C669EC001679E33
:10093000900D1124909311018093100160910E018C
:1009400070910F010E94C10C70930D0160930C0116
:1009500069CF109293011092920163C010E089E078
:1009600002C010E08BE0082F9CE0999E000D11243E
:10097000B6DD982F977F933261F4209192013091E8
:1009800093012F5F3F4F30939301209392010F5FAC
:10099000EFCF8D3269F420919201309193012F5F56
:1009A0003F4F3093930120939201015098DDF1CF96
:1009B00060910C0170910D018153883040F4E090FA
:1009C0001001F0901101A8DDBC01C701DAD77B014D
:1009D000F694E79469837A8382DD69817A818E3225
:1009E00069F420919201309193012F5F3F4F309332
:1009F0009301209392016E0D7F1DEACF80919601A5
:100A0000882339F09B013695279520939501621B29
:100A1000710940910A01112311F08FEF01C0802F5D
:100A200073DE2296E0E10C94630D1F920F920FB6D5
:100A30000F9211242F933F934F935F936F937F9364
:100A40008F939F93AF93BF93EF93FF9380919901FF
:100A500090919A019C012150310930939A01209381
:100A60009901892B09F510926F007894809181008B
:100A7000887F81608093810080E197E29093890074
:100A80008093880010928B0010928A0081E08093FE
:100A900013018091920190919301892B29F080910B
:100AA0009801811101C083DEFF91EF91BF91AF9159
:100AB0009F918F917F916F915F914F913F912F9176
:100AC0000F900FBE0F901F90189510926F0090938B
:100AD00093018093920181E0809397011092950198
:100AE00066CEF3CF0895883058F491E001C0990F95
:100AF0008A95EAF7892FAAE2B0E0EBE2F0E021C0A4
:100B00008E3060F498EF980F81E001C0880F9A95BD
:100B1000EAF7A4E2B0E0E5E2F0E013C0853160F46A
:100B200092EF980F81E001C0880F9A95EAF7A7E24B
:100B3000B0E0E8E2F0E005C080E0A0E0B0E0E0E096
:100B4000F0E06F3F19F49081982709C0662319F0EF
:100B50009081982B04C02081982F909592239083A8
:100B60009C91982B9C93089583EF8093B00084BD53
:100B700082E08093B10085BD1092B4001092B30062
:100B800018BC17BC60E086E0AEDF60E085E0ABDF5C
:100B900060E08BE0A8DF60E083E0A5CF8091F70103
:100BA000811104C081E08093F701DECF0895CF93D7
:100BB000DF93EC01F3DFD7FF05C0D195C195D109D3
:100BC00081E001C080E0CF3FD10519F014F0CFEFF4
:100BD000D0E0882319F018BCC7BD02C0C8BD17BC3F
:100BE000DF91CF910895CF93DF93EC01D7DFD7FF4B
:100BF00005C0D195C195D10981E001C080E0CF3F0A
:100C0000D10519F014F0CFEFD0E0882329F010922D
:100C1000B400C093B30004C0C093B4001092B300FA
:100C2000DF91CF910895CF93DF93EB01C0DFCE0129
:100C3000DADFDF91CF910895F6CF0895282F30E0C5
:100C40009AE0899FF0011124E556FE4F8085918539
:100C5000009721F052814481541780F08AE0829FEE
:100C6000F001839FF00D1124E556FE4F928184819F
:100C700098130EC0858181110AC008954281DC015C
:100C8000A40FB11D6C9382818F5F8283E7CF1282A4
:100C900008959091C1009F779093C1009AE0899F39
:100CA000F0011124E556FE4F71876087128244835C
:100CB00025838081811105C08091C1008068809367
:100CC000C1000895462F21E0BC0180E0E2CF1F92D1
:100CD0000F920FB60F9211242F933F934F935F9370
:100CE0006F937F938F939F93AF93BF93EF93FF93F4
:100CF0006091C60080E0A2DFFF91EF91BF91AF91BC
:100D00009F918F917F916F915F914F913F912F9123
:100D10000F900FBE0F901F9018959AE0899FF001D9
:100D20001124E556FE4F86819781892B59F09181D8
:100D30008381981738F48081811104C08091C100AB
:100D4000806203C08091C1008F7D8093C1000895AF
:100D50009AE0899FF0011124E556FE4F9081911190
:100D600002C098E901C098E19093C100D6DF789461
:100D70000895CF92DF92EF92FF926B017C0180E0A9
:100D8000E7DFA8EFBFEFA70196017BD6735D8E4C1E
:100D90009E4FF4E0220F331F441F551FFA95D1F7E1
:100DA00017D63093C5002093C400FF90EF90DF90DA
:100DB000CF9008959AE0899FF0011124E556FE4FE7
:100DC000268137812115310541F0418193814917F1
:100DD00020F49091C00095FD01C09FCF9181D90171
:100DE000A90FB11D9C919093C60091819F5F918343
:100DF000F4CF1F920F920FB60F9211242F933F93AF
:100E00004F935F936F937F938F939F93AF93BF9312
:100E1000EF93FF9380E0CEDFFF91EF91BF91AF9111
:100E20009F918F917F916F915F914F913F912F9102
:100E30000F900FBE0F901F9018952F928F939F9336
:100E40002FB68091AC019091AD0101968093AC01D9
:100E50009093AD0190E08091AE01891F8093AE0127
:100E60009091A6019C5F9093A6018091A50180516D
:100E70009742C0F09093A6018093A5018091A701AD
:100E80009091A80101968093A7019093A80190E00A
:100E90008091A901891F8093A9018091AA01891FCE
:100EA0008093AA012FBE9F918F912F90189528EEC5
:100EB00033E0019748F0F9016F9364E06A95F1F728
:100EC0006F913197C9F7F5CF0895F1CF0895E0E715
:100ED000F0E080818E7F8083A0EBB0E08C91836016
:100EE0008C93A1EBB0E08C91807F8C938C9182608D
:100EF0008C93B89A808181608083789408958091E2
:100F0000F801811104C081E08093F801E0CF0895D9
:100F1000F6DFE0E7F0E080818E7F80831092A7010A
:100F20001092A8011092A9011092AA011092A60194
:100F30001092A5018081816080830895682F8FEAD7
:100F400091E0BFC3462F20E0BC018FEA91E083C44B
:100F50000F93CF93DF9300D000D01F92CDB7DEB7B1
:100F60009C0185E0E2E3F1E0DE01119601900D9233
:100F70008A95E1F7662311F00FEF01C003E145E028
:100F8000BE016F5F7F4F8FEA91E0A8D08FEA91E0BA
:100F90007ED0BEDF0F900F900F900F900F90DF91DB
:100FA000CF910F91089560E0D3CF8FEA91E0C3C451
:100FB0006F9364E06A95F1F76F910197C9F708950F
:100FC000FC01118210821382128215821482168211
:100FD000683068F489E290E0918380838BE290E04E
:100FE000938382838AE290E0958384831FC06E306E
:100FF00070F483E290E09183808385E290E09383B4
:10100000828384E290E09583848368500FC06531C9
:1010100098F486E290E09183808388E290E0938365
:10102000828387E290E0958384836E5081E001C0E3
:10103000880F6A95EAF786830895A7E0B0E0E2E2B8
:10104000F8E031C58C01FC011182108213821282FA
:101050001582148217821682613118F080E1808730
:1010600002C0FC016087F801208B642FCE0101963D
:10107000A7DF8F81F80181878B819C81938782878D
:101080008D819E81958784872796E4E028C5FC01A1
:10109000A485B585109771F08C919185892B8C93DF
:1010A000A285B3859C918185809589238C9388EC5A
:1010B00090E07ECF0895FC01A485B585109769F076
:1010C0008C919185892B8C93A285B3858C91918588
:1010D000892B8C9388EC90E06BCF0895A7E0B0E06B
:1010E000E3E7F8E0D5C47C014B01642F3901402FC0
:1010F00020E0A3DF87010F5B1F4FF801108267011B
:10110000F2E4CF0ED11CF60110825701F3E4AF0ECA
:10111000B11CF5011082F70177866686512CF70124
:101120008085581648F5652C712CF401E60DF71DE5
:101130006081CE01019644DF2F81F701E60DF71D96
:10114000218B89819A81F301EE0FFF1FEE0DFF1DA8
:1011500092A381A38332910511F4F80108C086326D
:10116000910511F4F60103C0899721F4F5018081FE
:10117000822B80835394D3CF2796EFE0A5C4A0E0C1
:10118000B0E0E4ECF8E086C4EC015B016C0181E4C2
:10119000C80ED11CF60180807E01F2E4EF0EF11C36
:1011A000F70170808E010D5B1F4FF801908080E089
:1011B0009885891748F4F501E80FF11DE80FF11D36
:1011C000118210828F5FF4CF84B1F6019081892B58
:1011D00084B987B1F7019081892B87B98AB1F80169
:1011E0009081892B8AB985B1F6019081892B85B9C7
:1011F00088B1F7019081892B88B98BB1F801908172
:10120000892B8BB98AE090E0D3DE94B1F60180811E
:101210008095892384B997B1F701808180958923CE
:1012200087B99AB1F8018081809589238AB995B1EF
:10123000F60180818095892385B998B1F701808175
:101240008095892388B99BB1F80180818095892395
:101250008BB9E090B000D090B1008091B000836075
:101260008093B00082E08093B1004091B20080E0B2
:1012700090E02E853F858217930720F5C090B2003D
:101280002C2D241B820F911D03B1081132C0F6B022
:10129000F7102FC029B129112CC010C0212F30E028
:1012A000A901440F551FF501E40FF51F60817181FD
:1012B000672B21F11F5F2885121780F37F2C802E6A
:1012C0004C2DD7CFE092B000D092B10020E08885BD
:1012D000281730F5F501E20FF11DE20FF11D8081B5
:1012E0009181892B21F48E859F85918380832F5F47
:1012F000EECF03B1F6B099B010E0DDCFDE01A40F60
:10130000B51F91960D90BC91A02D4C91DE01A20FBE
:10131000B31F51962C91422369F691838083CACFE3
:10132000CDB7DEB7EDE0D2C3EF92FF920F931F93DC
:10133000CF93DF93FC019B01F0907C0000917A0039
:1013400047B118B180917A0086FDFCCF80E090858E
:10135000891748F4D901A80FB11DA80FB11D1D921E
:101360001C928F5FF4CF97B182A18095892387B9B2
:1013700098B182A18095892388B987E880937A0003
:10138000E12C81A1E81610F0E12C29C050E0808505
:10139000581718F5A52FB0E0EF01CA0FDB1F898998
:1013A000806480937C0080917A00806480937A00CE
:1013B00080917A0086FDFCCF609178007091790071
:1013C000AA0FBB1FA20FB31F8D919C911197860F7F
:1013D000971F8D939C935F5FDACFE394D2CF808584
:1013E000E81698F4E901CE0DD11DCE0DD11D61A1F5
:1013F00070E0CB0195958795A881B9818A0F9B1FD5
:10140000C0D279836883E394EACFF0927C000093A2
:101410007A0018B947B9CDB7DEB7E6E05EC3A0E2FF
:10142000B0E0E4E1FAE03CC38C017B01D42E8FEF05
:10143000840F823010F4C8013EDED80150968C91A2
:10144000B70181110DC0C8019ADEC80120DEB2E0EB
:10145000DB1236C0BE016F5F7F4FC80190DE0CC04B
:10146000C80162DFC80113DEE2E0DE1229C0BE015E
:101470006F5F7F4FC80158DF40E0F8018085481753
:10148000F8F4842F90E0880F991FF701E80FF91FF7
:1014900021E030E02C0F3D1F820F931FD8011E96D4
:1014A0002D913C911F97DC018D919C91281B390B4C
:1014B00080819181820F931F918380834F5FDDCF65
:1014C000A096E7E009C32F923F925F926F927F92BE
:1014D0008F929F92AF92BF92CF92DF92EF92FF9244
:1014E0000F931F93CF93DF93CDB7DEB7C056D109CB
:1014F0000FB6F894DEBF0FBECDBF8C014B015A0171
:10150000522EDA018D919C91892B31F0F40180816A
:101510009181892BE9F423C0D80118968C9190E031
:10152000880F991F76D4F50191838083009709F481
:10153000AFC0FC0120E030E0D80118968C9190E01B
:10154000281739071CF7119211922F5F3F4FF4CFE4
:10155000E12CF12C6E01B1E2CB0ED11C20C0F801C0
:10156000808590E0880F991F54D4D4018D939C936B
:10157000009709F48DC0FC0120E030E0D8011896F6
:101580008C9190E0281739071CF7D8011E968D9191
:101590009C911F97819391932F5F3F4FEFCF452DE4
:1015A000BE016F5B7F4FC8013ADFF8016084712C88
:1015B000FE01EF5BFF4FC6019E012F5F3F4F1901F8
:1015C00020E030E0261537054CF5E114F10489F0F0
:1015D000DC016D917C91408151816417750748F061
:1015E000D1016D917C91408151814617570748F098
:1015F0000DC040815181DC014D935C93E114F104F5
:1016000079F740815181D1014D935C932F5F3F4F1A
:10161000B2E02B0E311C32960296D4CFEFEFEE1AC9
:10162000FE0AFAE0EF16F10409F0B9CF9E012F5F30
:101630003F4F7901360180E090E0F801208530E0ED
:10164000821793072CF5D7012D913D917D01B301B0
:101650006C197D09D501ED91FC91E60FF71F4081D2
:1016600051814217530710F431832083F3012191F4
:1016700031913F01D401ED91FC91E60FF71F4081BC
:1016800051812417350710F4318320830196D5CF7B
:10169000C05ADF4F0FB6F894DEBF0FBECDBFDF914B
:1016A000CF911F910F91FF90EF90DF90CF90BF905F
:1016B000AF909F908F907F906F905F903F902F9012
:1016C00008951F93CF93DF93EC01162F8FEF860FB2
:1016D000823018F0662351F012C021E0AE014E5F57
:1016E0005F4FBE01CE01EFDE123049F4AE014A5F1A
:1016F0005F4FBE016C5F7F4F20E0CE01E4DEDF91E3
:10170000CF911F910895A0E0B0E0E8E8FBE0C6C1EA
:10171000EC018B01B42E842F8D7F51F48C819D813F
:10172000892B09F494C08E819F81892B09F48FC085
:101730008FEF8B0D823050F488819981892B09F4C9
:1017400086C08A819B81892B09F481C04B2DB80109
:10175000CE0165DE780100E010E0C12CD12C888537
:1017600090E0C816D9060CF072C081E0B8120AC029
:10177000EA81FB81E00FF11F0190F081E02DA8814B
:10178000B9810DC08C819D812E813F81B1100CC02B
:10179000F901E00FF11F0190F081E02DDC01A00FB5
:1017A000B11F8D919C9128C0FC01E00FF11F408179
:1017B0005181E881F981E00FF11F80819181EE85EF
:1017C000FF854817590710F4CF0104C08E0F9F1FE3
:1017D000841B950BD901A00FB11F2D913C91AA81BB
:1017E000BB81A00FB11F4D915C912417350720F0EC
:1017F000E40FF51FE21BF30BE81BF90B99F0D7017F
:101800002D913C9140E050E0281B390B41095109D2
:10181000A8EEB3E02AD19F0140E050E0FBD037FDB5
:101820000AC002C020E030E0293EB3E03B072CF0C4
:1018300028EE33E002C020E030E0F701219331933D
:101840007F01FFEFCF1ADF0A0E5F1F4F88CFCDB7A2
:10185000DEB7E9E03FC1A0E0B0E0E0E3FCE015C1A5
:10186000EC018B01822E4FDF2884E801412C512CA2
:10187000320100E010E0C12CD12C7601312C912CEA
:1018800058EEA52E53E0B52E921419F1E991F99175
:10189000882021F0C5018E1B9F0BFC01E93CF1055E
:1018A00024F4E333F1056CF002C033243394DF01F8
:1018B000A3019201E4D0C60ED71EE81EF91E0E0F3A
:1018C0001F1F939498EE490E93E0591E611C711CE2
:1018D000DBCF31101EC0492D50E04150510924EF9B
:1018E00031E0429FC001439F900D529F900D112403
:1018F0002091F3013091F40128173907ACF088EEFC
:1019000093E0489F9001499F300D589F300D11245E
:101910000DC0980140E050E0C701B60159D03093A6
:10192000F4012093F30102C020E030E0C901CDB7FB
:10193000DEB7E2E1C6C0CF93DF93EC018A819B81E1
:10194000009709F0FED28E819F81009709F0F9D2AD
:1019500088819981009709F0F4D28C819D8100974C
:1019600009F0EFD2DF91CF910895991B79E004C07F
:10197000991F961708F0961B881F7A95C9F78095CE
:101980000895AA1BBB1B51E107C0AA1FBB1FA617C6
:10199000B70710F0A61BB70B881F991F5A95A9F718
:1019A00080959095BC01CD01089597FB072E16F404
:1019B000009406D077FD08D0E4DF07FC05D03EF4A4
:1019C000909581959F4F0895709561957F4F0895EB
:1019D000A1E21A2EAA1BBB1BFD010DC0AA1FBB1F33
:1019E000EE1FFF1FA217B307E407F50720F0A21BA5
:1019F000B30BE40BF50B661F771F881F991F1A9412
:101A000069F760957095809590959B01AC01BD013B
:101A1000CF010895052E97FB16F400940FD057FDC3
:101A200005D0D6DF07FC02D046F408C0509540959B
:101A3000309521953F4F4F4F5F4F0895909580957A
:101A4000709561957F4F8F4F9F4F0895A29FB00172
:101A5000B39FC001A39F700D811D1124911DB29FE2
:101A6000700D811D1124911D0895F0DFA59F900D2B
:101A7000B49F900DA49F800D911D11240895B7FF70
:101A8000F4CFF3DF821B930B08952F923F924F9276
:101A90005F926F927F928F929F92AF92BF92CF92FE
:101AA000DF92EF92FF920F931F93CF93DF93CDB707
:101AB000DEB7CA1BDB0B0FB6F894DEBF0FBECDBF7F
:101AC00009942A88398848885F846E847D848C8450
:101AD0009B84AA84B984C884DF80EE80FD800C8159
:101AE0001B81AA81B981CE0FD11D0FB6F894DEBF3C
:101AF0000FBECDBFED010895EE0FFF1F0590F491CD
:101B0000E02D09945058BB27AA270ED0E5C0D6D0A7
:101B100030F0DBD020F031F49F3F11F41EF4CBC045
:101B20000EF4E095E7FBC1C0E92FE7D080F3BA17C8
:101B3000620773078407950718F071F49EF5FFC0DC
:101B40000EF4E0950B2EBA2FA02D0B01B9019001D8
:101B50000C01CA01A0011124FF27591B99F0593F1C
:101B600050F4503E68F11A16F040A22F232F342F64
:101B70004427585FF3CF469537952795A795F040B2
:101B80005395C9F77EF41F16BA0B620B730B840BC7
:101B9000BAF09150A1F0FF0FBB1F661F771F881F7F
:101BA000C2F70EC0BA0F621F731F841F48F48795D7
:101BB00077956795B795F7959E3F08F0B3CF9395C6
:101BC000880F08F09927EE0F97958795089504D010
:101BD0006894B111B5C0089598D088F09F5790F0DF
:101BE000B92F9927B751A0F0D1F0660F771F881F42
:101BF000991F1AF0BA95C9F712C0B13081F09FD081
:101C0000B1E008959CC0672F782F8827B85F39F01E
:101C1000B93FCCF3869577956795B395D9F73EF4A0
:101C200090958095709561957F4F8F4F9F4F089548
:101C3000E89409C097FB3EF4909580957095619566
:101C40007F4F8F4F9F4F9923A9F0F92F96E9BB271C
:101C50009395F695879577956795B795F111F8CF98
:101C6000FAF4BB0F11F460FF1BC06F5F7F4F8F4F03
:101C70009F4F16C0882311F096E911C0772321F0F9
:101C80009EE8872F762F05C0662371F096E8862F91
:101C900070E060E02AF09A95660F771F881FDAF7E8
:101CA000880F9695879597F9089597F99F6780E82B
:101CB00070E060E008959FEF80EC089500240A949E
:101CC0001616170618060906089500240A94121617
:101CD0001306140605060895092E0394000C11F44A
:101CE000882352F0BB0F40F4BF2B11F460FF04C0F7
:101CF0006F5F7F4F8F4F9F4F089557FD9058440F50
:101D0000551F59F05F3F71F04795880F97FB991F5A
:101D100061F09F3F79F08795089512161306140617
:101D2000551FF2CF4695F1DF08C0161617061806A4
:101D3000991FF1CF86957105610508940895E8947F
:101D4000BB2766277727CB0197F908950BD0C4CF1F
:101D5000B5DF28F0BADF18F0952309F0A6CFABCF96
:101D60001124EECFCADFA0F3959FD1F3950F50E079
:101D7000551F629FF001729FBB27F00DB11D639F3D
:101D8000AA27F00DB11DAA1F649F6627B00DA11DE3
:101D9000661F829F2227B00DA11D621F739FB00D89
:101DA000A11D621F839FA00D611D221F749F3327F9
:101DB000A00D611D231F849F600D211D822F762F92
:101DC0006A2F11249F5750408AF0E1F088234AF08F
:101DD000EE0FFF1FBB1F661F771F881F91505040DB
:101DE000A9F79E3F510570F060CFAACF5F3FECF39B
:101DF000983EDCF3869577956795B795F795E795C7
:101E00009F5FC1F7FE2B880F911D9695879597F9D7
:101E10000895CF93DF938230910510F482E090E033
:101E2000E091FB01F091FC0120E030E0A0E0B0E0A7
:101E3000309739F14081518148175907B8F0481758
:101E4000590771F482819381109729F013969C931E
:101E50008E9312972CC09093FC018093FB0127C0B6
:101E60002115310531F04217530718F0A901DB01A4
:101E700001C0EF019A01BD01DF010280F381E02D75
:101E8000D7CF21153105F9F0281B390B2430310546
:101E900080F48A819B816115710521F0FB01938398
:101EA000828304C09093FC018093FB01FE01329673
:101EB00044C0FE01E20FF31F819391932250310938
:101EC000398328833AC02091F9013091FA01232BFC
:101ED00041F420911601309117013093FA012093BB
:101EE000F90120911401309115012115310541F4BA
:101EF0002DB73EB74091180150911901241B350BA5
:101F0000E091F901F091FA01E217F307A0F42E1B1A
:101F10003F0B2817390778F0AC014E5F5F4F24174D
:101F2000350748F04E0F5F1F5093FA014093F901B7
:101F30008193919302C0E0E0F0E0CF01DF91CF9177
:101F40000895CF93DF93009709F487C0FC0132977F
:101F500013821282C091FB01D091FC01209781F481
:101F600020813181280F391F8091F9019091FA0168
:101F70008217930779F5F093FA01E093F9016DC0A8
:101F8000DE0120E030E0AE17BF0750F412964D910D
:101F90005C9113979D014115510509F1DA01F3CFC9
:101FA000B383A28340815181840F951F8A179B07B9
:101FB00071F48D919C911197840F951F02969183D6
:101FC000808312968D919C91139793838283211520
:101FD000310529F4F093FC01E093FB013EC0D901E7
:101FE0001396FC93EE9312974D915D91A40FB51F3C
:101FF000EA17FB0779F480819181840F951F02967F
:10200000D90111969C938E938281938113969C9310
:102010008E931297E0E0F0E08A819B81009719F09F
:10202000FE01EC01F9CFCE01029628813981820FA1
:10203000931F2091F9013091FA012817390769F4AB
:10204000309729F41092FC011092FB0102C0138218
:102050001282D093FA01C093F901DF91CF910895D4
:1020600010E0C2ECD0E003C0FE0148DD2296C43C83
:08207000D107D1F7F894FFCF6E
:102078002C01E8030100010028000F00F40104000E
:10208800D00704010000FD0120009C01B501CF012B
:10209800EA0107022602470269028E02B502DE0241
:0820A8000A030E0F10111200D3
:00000001FF
